{
  "contractName": "Exchange",
  "abi": [
    {
      "inputs": [
        {
          "internalType": "address",
          "name": "tokenAddress",
          "type": "address"
        }
      ],
      "stateMutability": "nonpayable",
      "type": "constructor"
    },
    {
      "anonymous": false,
      "inputs": [
        {
          "indexed": false,
          "internalType": "address",
          "name": "provider",
          "type": "address"
        },
        {
          "indexed": false,
          "internalType": "uint256",
          "name": "ethAmount",
          "type": "uint256"
        },
        {
          "indexed": false,
          "internalType": "uint256",
          "name": "tokenAmount",
          "type": "uint256"
        }
      ],
      "name": "AddLiquidity",
      "type": "event"
    },
    {
      "anonymous": false,
      "inputs": [
        {
          "indexed": true,
          "internalType": "address",
          "name": "owner",
          "type": "address"
        },
        {
          "indexed": true,
          "internalType": "address",
          "name": "spender",
          "type": "address"
        },
        {
          "indexed": false,
          "internalType": "uint256",
          "name": "value",
          "type": "uint256"
        }
      ],
      "name": "Approval",
      "type": "event"
    },
    {
      "anonymous": false,
      "inputs": [
        {
          "indexed": false,
          "internalType": "address",
          "name": "buyer",
          "type": "address"
        },
        {
          "indexed": false,
          "internalType": "uint256",
          "name": "tokensSold",
          "type": "uint256"
        },
        {
          "indexed": false,
          "internalType": "uint256",
          "name": "weiBought",
          "type": "uint256"
        }
      ],
      "name": "EthPurchase",
      "type": "event"
    },
    {
      "anonymous": false,
      "inputs": [
        {
          "indexed": false,
          "internalType": "address",
          "name": "from",
          "type": "address"
        },
        {
          "indexed": false,
          "internalType": "uint256",
          "name": "ethAmount",
          "type": "uint256"
        },
        {
          "indexed": false,
          "internalType": "uint256",
          "name": "tokenAmount",
          "type": "uint256"
        }
      ],
      "name": "RemoveLiquidity",
      "type": "event"
    },
    {
      "anonymous": false,
      "inputs": [
        {
          "indexed": false,
          "internalType": "address",
          "name": "buyer",
          "type": "address"
        },
        {
          "indexed": false,
          "internalType": "uint256",
          "name": "ethSold",
          "type": "uint256"
        },
        {
          "indexed": false,
          "internalType": "uint256",
          "name": "tokenBought",
          "type": "uint256"
        }
      ],
      "name": "TokenPurchase",
      "type": "event"
    },
    {
      "anonymous": false,
      "inputs": [
        {
          "indexed": true,
          "internalType": "address",
          "name": "from",
          "type": "address"
        },
        {
          "indexed": true,
          "internalType": "address",
          "name": "to",
          "type": "address"
        },
        {
          "indexed": false,
          "internalType": "uint256",
          "name": "value",
          "type": "uint256"
        }
      ],
      "name": "Transfer",
      "type": "event"
    },
    {
      "stateMutability": "payable",
      "type": "fallback",
      "payable": true
    },
    {
      "inputs": [
        {
          "internalType": "address",
          "name": "owner",
          "type": "address"
        },
        {
          "internalType": "address",
          "name": "spender",
          "type": "address"
        }
      ],
      "name": "allowance",
      "outputs": [
        {
          "internalType": "uint256",
          "name": "",
          "type": "uint256"
        }
      ],
      "stateMutability": "view",
      "type": "function",
      "constant": true
    },
    {
      "inputs": [
        {
          "internalType": "address",
          "name": "spender",
          "type": "address"
        },
        {
          "internalType": "uint256",
          "name": "amount",
          "type": "uint256"
        }
      ],
      "name": "approve",
      "outputs": [
        {
          "internalType": "bool",
          "name": "",
          "type": "bool"
        }
      ],
      "stateMutability": "nonpayable",
      "type": "function"
    },
    {
      "inputs": [
        {
          "internalType": "address",
          "name": "account",
          "type": "address"
        }
      ],
      "name": "balanceOf",
      "outputs": [
        {
          "internalType": "uint256",
          "name": "",
          "type": "uint256"
        }
      ],
      "stateMutability": "view",
      "type": "function",
      "constant": true
    },
    {
      "inputs": [],
      "name": "decimals",
      "outputs": [
        {
          "internalType": "uint8",
          "name": "",
          "type": "uint8"
        }
      ],
      "stateMutability": "view",
      "type": "function",
      "constant": true
    },
    {
      "inputs": [
        {
          "internalType": "address",
          "name": "spender",
          "type": "address"
        },
        {
          "internalType": "uint256",
          "name": "subtractedValue",
          "type": "uint256"
        }
      ],
      "name": "decreaseAllowance",
      "outputs": [
        {
          "internalType": "bool",
          "name": "",
          "type": "bool"
        }
      ],
      "stateMutability": "nonpayable",
      "type": "function"
    },
    {
      "inputs": [
        {
          "internalType": "address",
          "name": "spender",
          "type": "address"
        },
        {
          "internalType": "uint256",
          "name": "addedValue",
          "type": "uint256"
        }
      ],
      "name": "increaseAllowance",
      "outputs": [
        {
          "internalType": "bool",
          "name": "",
          "type": "bool"
        }
      ],
      "stateMutability": "nonpayable",
      "type": "function"
    },
    {
      "inputs": [],
      "name": "name",
      "outputs": [
        {
          "internalType": "string",
          "name": "",
          "type": "string"
        }
      ],
      "stateMutability": "view",
      "type": "function",
      "constant": true
    },
    {
      "inputs": [],
      "name": "symbol",
      "outputs": [
        {
          "internalType": "string",
          "name": "",
          "type": "string"
        }
      ],
      "stateMutability": "view",
      "type": "function",
      "constant": true
    },
    {
      "inputs": [],
      "name": "token",
      "outputs": [
        {
          "internalType": "address",
          "name": "",
          "type": "address"
        }
      ],
      "stateMutability": "view",
      "type": "function",
      "constant": true
    },
    {
      "inputs": [],
      "name": "totalSupply",
      "outputs": [
        {
          "internalType": "uint256",
          "name": "",
          "type": "uint256"
        }
      ],
      "stateMutability": "view",
      "type": "function",
      "constant": true
    },
    {
      "inputs": [
        {
          "internalType": "address",
          "name": "to",
          "type": "address"
        },
        {
          "internalType": "uint256",
          "name": "amount",
          "type": "uint256"
        }
      ],
      "name": "transfer",
      "outputs": [
        {
          "internalType": "bool",
          "name": "",
          "type": "bool"
        }
      ],
      "stateMutability": "nonpayable",
      "type": "function"
    },
    {
      "inputs": [
        {
          "internalType": "address",
          "name": "from",
          "type": "address"
        },
        {
          "internalType": "address",
          "name": "to",
          "type": "address"
        },
        {
          "internalType": "uint256",
          "name": "amount",
          "type": "uint256"
        }
      ],
      "name": "transferFrom",
      "outputs": [
        {
          "internalType": "bool",
          "name": "",
          "type": "bool"
        }
      ],
      "stateMutability": "nonpayable",
      "type": "function"
    },
    {
      "inputs": [
        {
          "internalType": "uint256",
          "name": "minLiquidity",
          "type": "uint256"
        },
        {
          "internalType": "uint256",
          "name": "maxTokens",
          "type": "uint256"
        },
        {
          "internalType": "uint256",
          "name": "deadline",
          "type": "uint256"
        }
      ],
      "name": "addLiquidity",
      "outputs": [
        {
          "internalType": "uint256",
          "name": "",
          "type": "uint256"
        }
      ],
      "stateMutability": "payable",
      "type": "function",
      "payable": true
    },
    {
      "inputs": [
        {
          "internalType": "uint256",
          "name": "amount",
          "type": "uint256"
        },
        {
          "internalType": "uint256",
          "name": "minEth",
          "type": "uint256"
        },
        {
          "internalType": "uint256",
          "name": "minTokens",
          "type": "uint256"
        },
        {
          "internalType": "uint256",
          "name": "deadline",
          "type": "uint256"
        }
      ],
      "name": "removeLiquidity",
      "outputs": [
        {
          "internalType": "uint256",
          "name": "",
          "type": "uint256"
        },
        {
          "internalType": "uint256",
          "name": "",
          "type": "uint256"
        }
      ],
      "stateMutability": "nonpayable",
      "type": "function"
    },
    {
      "inputs": [
        {
          "internalType": "uint256",
          "name": "minTokens",
          "type": "uint256"
        },
        {
          "internalType": "uint256",
          "name": "deadline",
          "type": "uint256"
        }
      ],
      "name": "ethToTokenSwapInput",
      "outputs": [
        {
          "internalType": "uint256",
          "name": "",
          "type": "uint256"
        }
      ],
      "stateMutability": "payable",
      "type": "function",
      "payable": true
    },
    {
      "inputs": [
        {
          "internalType": "uint256",
          "name": "minTokens",
          "type": "uint256"
        },
        {
          "internalType": "uint256",
          "name": "deadline",
          "type": "uint256"
        },
        {
          "internalType": "address",
          "name": "recipient",
          "type": "address"
        }
      ],
      "name": "ethToTokenTransferInput",
      "outputs": [
        {
          "internalType": "uint256",
          "name": "",
          "type": "uint256"
        }
      ],
      "stateMutability": "payable",
      "type": "function",
      "payable": true
    },
    {
      "inputs": [
        {
          "internalType": "uint256",
          "name": "tokensBought",
          "type": "uint256"
        },
        {
          "internalType": "uint256",
          "name": "deadline",
          "type": "uint256"
        }
      ],
      "name": "ethToTokenSwapOutput",
      "outputs": [
        {
          "internalType": "uint256",
          "name": "",
          "type": "uint256"
        }
      ],
      "stateMutability": "payable",
      "type": "function",
      "payable": true
    },
    {
      "inputs": [
        {
          "internalType": "uint256",
          "name": "tokensBought",
          "type": "uint256"
        },
        {
          "internalType": "uint256",
          "name": "deadline",
          "type": "uint256"
        },
        {
          "internalType": "address",
          "name": "recipient",
          "type": "address"
        }
      ],
      "name": "ethToTokenTransferOutput",
      "outputs": [
        {
          "internalType": "uint256",
          "name": "",
          "type": "uint256"
        }
      ],
      "stateMutability": "payable",
      "type": "function",
      "payable": true
    },
    {
      "inputs": [
        {
          "internalType": "uint256",
          "name": "tokensSold",
          "type": "uint256"
        },
        {
          "internalType": "uint256",
          "name": "minEth",
          "type": "uint256"
        },
        {
          "internalType": "uint256",
          "name": "deadline",
          "type": "uint256"
        }
      ],
      "name": "tokenToEthSwapInput",
      "outputs": [
        {
          "internalType": "uint256",
          "name": "",
          "type": "uint256"
        }
      ],
      "stateMutability": "nonpayable",
      "type": "function"
    },
    {
      "inputs": [
        {
          "internalType": "uint256",
          "name": "tokensSold",
          "type": "uint256"
        },
        {
          "internalType": "uint256",
          "name": "minEth",
          "type": "uint256"
        },
        {
          "internalType": "uint256",
          "name": "deadline",
          "type": "uint256"
        },
        {
          "internalType": "address",
          "name": "recipient",
          "type": "address"
        }
      ],
      "name": "tokenToEthTransferInput",
      "outputs": [
        {
          "internalType": "uint256",
          "name": "",
          "type": "uint256"
        }
      ],
      "stateMutability": "nonpayable",
      "type": "function"
    },
    {
      "inputs": [
        {
          "internalType": "uint256",
          "name": "ethBought",
          "type": "uint256"
        },
        {
          "internalType": "uint256",
          "name": "maxTokens",
          "type": "uint256"
        },
        {
          "internalType": "uint256",
          "name": "deadline",
          "type": "uint256"
        }
      ],
      "name": "tokenToEthSwapOutput",
      "outputs": [
        {
          "internalType": "uint256",
          "name": "",
          "type": "uint256"
        }
      ],
      "stateMutability": "nonpayable",
      "type": "function"
    },
    {
      "inputs": [
        {
          "internalType": "uint256",
          "name": "ethBought",
          "type": "uint256"
        },
        {
          "internalType": "uint256",
          "name": "maxTokens",
          "type": "uint256"
        },
        {
          "internalType": "uint256",
          "name": "deadline",
          "type": "uint256"
        },
        {
          "internalType": "address",
          "name": "recipient",
          "type": "address"
        }
      ],
      "name": "tokenToEthTransferOutput",
      "outputs": [
        {
          "internalType": "uint256",
          "name": "",
          "type": "uint256"
        }
      ],
      "stateMutability": "nonpayable",
      "type": "function"
    },
    {
      "inputs": [
        {
          "internalType": "uint256",
          "name": "tokensSold",
          "type": "uint256"
        },
        {
          "internalType": "uint256",
          "name": "minTokensBought",
          "type": "uint256"
        },
        {
          "internalType": "uint256",
          "name": "minEthBought",
          "type": "uint256"
        },
        {
          "internalType": "uint256",
          "name": "deadline",
          "type": "uint256"
        },
        {
          "internalType": "address payable",
          "name": "exchangeAddress",
          "type": "address"
        }
      ],
      "name": "tokenToExchangeSwapInput",
      "outputs": [
        {
          "internalType": "uint256",
          "name": "",
          "type": "uint256"
        }
      ],
      "stateMutability": "nonpayable",
      "type": "function"
    },
    {
      "inputs": [
        {
          "internalType": "uint256",
          "name": "tokensSold",
          "type": "uint256"
        },
        {
          "internalType": "uint256",
          "name": "minTokensBought",
          "type": "uint256"
        },
        {
          "internalType": "uint256",
          "name": "minEthBought",
          "type": "uint256"
        },
        {
          "internalType": "uint256",
          "name": "deadline",
          "type": "uint256"
        },
        {
          "internalType": "address",
          "name": "recipient",
          "type": "address"
        },
        {
          "internalType": "address payable",
          "name": "exchangeAddress",
          "type": "address"
        }
      ],
      "name": "tokenToExchangeTransferInput",
      "outputs": [
        {
          "internalType": "uint256",
          "name": "",
          "type": "uint256"
        }
      ],
      "stateMutability": "nonpayable",
      "type": "function"
    },
    {
      "inputs": [
        {
          "internalType": "uint256",
          "name": "tokensBought",
          "type": "uint256"
        },
        {
          "internalType": "uint256",
          "name": "maxTokensSold",
          "type": "uint256"
        },
        {
          "internalType": "uint256",
          "name": "maxEthSold",
          "type": "uint256"
        },
        {
          "internalType": "uint256",
          "name": "deadline",
          "type": "uint256"
        },
        {
          "internalType": "address payable",
          "name": "exchangeAddress",
          "type": "address"
        }
      ],
      "name": "tokenToExchangeSwapOutput",
      "outputs": [
        {
          "internalType": "uint256",
          "name": "",
          "type": "uint256"
        }
      ],
      "stateMutability": "nonpayable",
      "type": "function"
    },
    {
      "inputs": [
        {
          "internalType": "uint256",
          "name": "tokensBought",
          "type": "uint256"
        },
        {
          "internalType": "uint256",
          "name": "maxTokensSold",
          "type": "uint256"
        },
        {
          "internalType": "uint256",
          "name": "maxEthSold",
          "type": "uint256"
        },
        {
          "internalType": "uint256",
          "name": "deadline",
          "type": "uint256"
        },
        {
          "internalType": "address",
          "name": "recipient",
          "type": "address"
        },
        {
          "internalType": "address payable",
          "name": "exchangeAddress",
          "type": "address"
        }
      ],
      "name": "tokenToExchangeTransferOutput",
      "outputs": [
        {
          "internalType": "uint256",
          "name": "",
          "type": "uint256"
        }
      ],
      "stateMutability": "nonpayable",
      "type": "function"
    },
    {
      "inputs": [
        {
          "internalType": "uint256",
          "name": "ethSold",
          "type": "uint256"
        }
      ],
      "name": "getEthToTokenInputPrice",
      "outputs": [
        {
          "internalType": "uint256",
          "name": "",
          "type": "uint256"
        }
      ],
      "stateMutability": "view",
      "type": "function",
      "constant": true
    },
    {
      "inputs": [
        {
          "internalType": "uint256",
          "name": "tokensBought",
          "type": "uint256"
        }
      ],
      "name": "getEthToTokenOutputPrice",
      "outputs": [
        {
          "internalType": "uint256",
          "name": "",
          "type": "uint256"
        }
      ],
      "stateMutability": "view",
      "type": "function",
      "constant": true
    },
    {
      "inputs": [
        {
          "internalType": "uint256",
          "name": "tokensSold",
          "type": "uint256"
        }
      ],
      "name": "getTokenToEthInputPrice",
      "outputs": [
        {
          "internalType": "uint256",
          "name": "",
          "type": "uint256"
        }
      ],
      "stateMutability": "view",
      "type": "function",
      "constant": true
    },
    {
      "inputs": [
        {
          "internalType": "uint256",
          "name": "ethBought",
          "type": "uint256"
        }
      ],
      "name": "getTokenToEthOutputPrice",
      "outputs": [
        {
          "internalType": "uint256",
          "name": "",
          "type": "uint256"
        }
      ],
      "stateMutability": "view",
      "type": "function",
      "constant": true
    }
  ],
  "bytecode": "0x60806040523480156200001157600080fd5b506040516200530838038062005308833981810160405281019062000037919062000259565b6040518060400160405280600a81526020017f556e69737761702d5631000000000000000000000000000000000000000000008152506040518060400160405280600681526020017f554e492d563100000000000000000000000000000000000000000000000000008152508160039080519060200190620000bb92919062000192565b508060049080519060200190620000d492919062000192565b505050600073ffffffffffffffffffffffffffffffffffffffff168173ffffffffffffffffffffffffffffffffffffffff1614156200014a576040517f08c379a00000000000000000000000000000000000000000000000000000000081526004016200014190620002ac565b60405180910390fd5b80600560006101000a81548173ffffffffffffffffffffffffffffffffffffffff021916908373ffffffffffffffffffffffffffffffffffffffff16021790555050620003bb565b828054620001a09062000313565b90600052602060002090601f016020900481019282620001c4576000855562000210565b82601f10620001df57805160ff191683800117855562000210565b8280016001018555821562000210579182015b828111156200020f578251825591602001919060010190620001f2565b5b5090506200021f919062000223565b5090565b5b808211156200023e57600081600090555060010162000224565b5090565b6000815190506200025381620003a1565b92915050565b6000602082840312156200026c57600080fd5b60006200027c8482850162000242565b91505092915050565b600062000294601b83620002ce565b9150620002a18262000378565b602082019050919050565b60006020820190508181036000830152620002c78162000285565b9050919050565b600082825260208201905092915050565b6000620002ec82620002f3565b9050919050565b600073ffffffffffffffffffffffffffffffffffffffff82169050919050565b600060028204905060018216806200032c57607f821691505b6020821081141562000343576200034262000349565b5b50919050565b7f4e487b7100000000000000000000000000000000000000000000000000000000600052602260045260246000fd5b7f546f6b656e2061646472657373206973206e6f742076616c69642e0000000000600082015250565b620003ac81620002df565b8114620003b857600080fd5b50565b614f3d80620003cb6000396000f3fe6080604052600436106101d15760003560e01c806395d89b41116100f7578063cd7724c311610095578063ec384a3e11610064578063ec384a3e14610799578063f39b5b9b146107d6578063f88bf15a14610806578063fc0c546a14610844576101d2565b8063cd7724c3146106a5578063d4e4841d146106e2578063dd62ed3e1461071f578063ea650c7d1461075c576101d2565b8063a457c2d7116100d1578063a457c2d7146105be578063a9059cbb146105fb578063ad65d76d14610638578063b1cb43bf14610668576101d2565b806395d89b411461051957806395e3c50b14610544578063981a132714610581576101d2565b8063313ce5671161016f5780636b1d4db71161013e5780636b1d4db71461043257806370a08231146104625780637237e0311461049f57806395b68fe7146104dc576101d2565b8063313ce5671461035d5780633950935114610388578063422f1043146103c557806359e94862146103f5576101d2565b80630b573638116101ab5780630b5736381461028857806318160ddd146102b857806323b872dd146102e35780632640f62c14610320576101d2565b8063013efd8b146101e357806306fdde0314610220578063095ea7b31461024b576101d2565b5b6101e034600142333361086f565b50005b3480156101ef57600080fd5b5061020a60048036038101906102059190613593565b610a9c565b60405161021791906142bb565b60405180910390f35b34801561022c57600080fd5b50610235610ab4565b6040516102429190613df9565b60405180910390f35b34801561025757600080fd5b50610272600480360381019061026d9190613451565b610b46565b60405161027f9190613dde565b60405180910390f35b6102a2600480360381019061029d9190613544565b610b69565b6040516102af91906142bb565b60405180910390f35b3480156102c457600080fd5b506102cd610c60565b6040516102da91906142bb565b60405180910390f35b3480156102ef57600080fd5b5061030a60048036038101906103059190613402565b610c6a565b6040516103179190613dde565b60405180910390f35b34801561032c57600080fd5b50610347600480360381019061034291906134b6565b610c99565b60405161035491906142bb565b60405180910390f35b34801561036957600080fd5b50610372610cfd565b60405161037f9190614336565b60405180910390f35b34801561039457600080fd5b506103af60048036038101906103aa9190613451565b610d06565b6040516103bc9190613dde565b60405180910390f35b6103df60048036038101906103da9190613593565b610db0565b6040516103ec91906142bb565b60405180910390f35b34801561040157600080fd5b5061041c600480360381019061041791906134b6565b6110c3565b60405161042991906142bb565b60405180910390f35b61044c60048036038101906104479190613508565b61112d565b60405161045991906142bb565b60405180910390f35b34801561046e57600080fd5b506104896004803603810190610484919061339d565b611144565b60405161049691906142bb565b60405180910390f35b3480156104ab57600080fd5b506104c660048036038101906104c191906135e2565b61118c565b6040516104d391906142bb565b60405180910390f35b3480156104e857600080fd5b5061050360048036038101906104fe91906134b6565b611284565b60405161051091906142bb565b60405180910390f35b34801561052557600080fd5b5061052e6112ee565b60405161053b9190613df9565b60405180910390f35b34801561055057600080fd5b5061056b60048036038101906105669190613593565b611380565b60405161057891906142bb565b60405180910390f35b34801561058d57600080fd5b506105a860048036038101906105a3919061371f565b611398565b6040516105b591906142bb565b60405180910390f35b3480156105ca57600080fd5b506105e560048036038101906105e09190613451565b611424565b6040516105f29190613dde565b60405180910390f35b34801561060757600080fd5b50610622600480360381019061061d9190613451565b61150e565b60405161062f9190613dde565b60405180910390f35b610652600480360381019061064d9190613544565b611531565b60405161065f91906142bb565b60405180910390f35b34801561067457600080fd5b5061068f600480360381019061068a91906136a8565b611628565b60405161069c91906142bb565b60405180910390f35b3480156106b157600080fd5b506106cc60048036038101906106c791906134b6565b611644565b6040516106d991906142bb565b60405180910390f35b3480156106ee57600080fd5b50610709600480360381019061070491906135e2565b6116a8565b60405161071691906142bb565b60405180910390f35b34801561072b57600080fd5b50610746600480360381019061074191906133c6565b6117a0565b60405161075391906142bb565b60405180910390f35b34801561076857600080fd5b50610783600480360381019061077e91906136a8565b611827565b60405161079091906142bb565b60405180910390f35b3480156107a557600080fd5b506107c060048036038101906107bb919061371f565b611843565b6040516107cd91906142bb565b60405180910390f35b6107f060048036038101906107eb9190613508565b6118cf565b6040516107fd91906142bb565b60405180910390f35b34801561081257600080fd5b5061082d60048036038101906108289190613645565b6118e6565b60405161083b9291906142d6565b60405180910390f35b34801561085057600080fd5b50610859611bc4565b6040516108669190613d2c565b60405180910390f35b60004284116108b3576040517f08c379a00000000000000000000000000000000000000000000000000000000081526004016108aa906141db565b60405180910390fd5b600086116108f6576040517f08c379a00000000000000000000000000000000000000000000000000000000081526004016108ed90613e5b565b60405180910390fd5b60008511610939576040517f08c379a00000000000000000000000000000000000000000000000000000000081526004016109309061405b565b60405180910390fd5b600061094430611bea565b9050600061095e888947610958919061444e565b84611c9e565b9050868110156109a3576040517f08c379a000000000000000000000000000000000000000000000000000000000815260040161099a9061409b565b60405180910390fd5b600560009054906101000a900473ffffffffffffffffffffffffffffffffffffffff1673ffffffffffffffffffffffffffffffffffffffff1663a9059cbb85836040518363ffffffff1660e01b8152600401610a00929190613d7e565b602060405180830381600087803b158015610a1a57600080fd5b505af1158015610a2e573d6000803e3d6000fd5b505050506040513d601f19601f82011682018060405250810190610a52919061348d565b507fcd60aa75dea3072fbc07ae6d7d856b5dc5f4eee88854f5b4abf7b680ef8bc50f858983604051610a8693929190613da7565b60405180910390a1809250505095945050505050565b6000610aab8484843333611d45565b90509392505050565b606060038054610ac39061451c565b80601f0160208091040260200160405190810160405280929190818152602001828054610aef9061451c565b8015610b3c5780601f10610b1157610100808354040283529160200191610b3c565b820191906000526020600020905b815481529060010190602001808311610b1f57829003601f168201915b5050505050905090565b600080610b51611e90565b9050610b5e818585611e98565b600191505092915050565b60003373ffffffffffffffffffffffffffffffffffffffff168273ffffffffffffffffffffffffffffffffffffffff161415610bda576040517f08c379a0000000000000000000000000000000000000000000000000000000008152600401610bd190613e9b565b60405180910390fd5b600073ffffffffffffffffffffffffffffffffffffffff168273ffffffffffffffffffffffffffffffffffffffff161415610c4a576040517f08c379a0000000000000000000000000000000000000000000000000000000008152600401610c4190613f9b565b60405180910390fd5b610c578434853386612063565b90509392505050565b6000600254905090565b600080610c75611e90565b9050610c828582856122b8565b610c8d858585612344565b60019150509392505050565b6000808211610cdd576040517f08c379a0000000000000000000000000000000000000000000000000000000008152600401610cd4906140db565b60405180910390fd5b6000610ce830611bea565b9050610cf58382476125c5565b915050919050565b60006012905090565b600080610d11611e90565b9050610da5818585600160008673ffffffffffffffffffffffffffffffffffffffff1673ffffffffffffffffffffffffffffffffffffffff16815260200190815260200160002060008973ffffffffffffffffffffffffffffffffffffffff1673ffffffffffffffffffffffffffffffffffffffff16815260200190815260200160002054610da0919061436d565b611e98565b600191505092915050565b6000428211610df4576040517f08c379a0000000000000000000000000000000000000000000000000000000008152600401610deb906141db565b60405180910390fd5b60008311610e37576040517f08c379a0000000000000000000000000000000000000000000000000000000008152600401610e2e9061407b565b60405180910390fd5b60003411610e7a576040517f08c379a0000000000000000000000000000000000000000000000000000000008152600401610e7190613f7b565b60405180910390fd5b6000610e84610c60565b905060008111156110145760008511610ed2576040517f08c379a0000000000000000000000000000000000000000000000000000000008152600401610ec9906140fb565b60405180910390fd5b60003447610ee0919061444e565b90506000610eed30611bea565b905060006001838334610f0091906143f4565b610f0a91906143c3565b610f14919061436d565b90506000838534610f2591906143f4565b610f2f91906143c3565b905081881015610f74576040517f08c379a0000000000000000000000000000000000000000000000000000000008152600401610f6b90613f5b565b60405180910390fd5b88811015610fb7576040517f08c379a0000000000000000000000000000000000000000000000000000000008152600401610fae9061425b565b60405180910390fd5b610fc1338a612672565b610fcc3330846127d2565b7f06239653922ac7bea6aa2b19dc486b9361821d37712eb796adfd38d81de278ca333484604051610fff93929190613da7565b60405180910390a180955050505050506110bc565b633b9aca0034101561105b576040517f08c379a0000000000000000000000000000000000000000000000000000000008152600401611052906141fb565b60405180910390fd5b6000849050600047905061106f3382612672565b61107a3330846127d2565b7f06239653922ac7bea6aa2b19dc486b9361821d37712eb796adfd38d81de278ca3334846040516110ad93929190613da7565b60405180910390a18093505050505b9392505050565b6000808211611107576040517f08c379a00000000000000000000000000000000000000000000000000000000081526004016110fe90613fbb565b60405180910390fd5b600061111230611bea565b905060006111218447846125c5565b90508092505050919050565b600061113c8334843333612063565b905092915050565b60008060008373ffffffffffffffffffffffffffffffffffffffff1673ffffffffffffffffffffffffffffffffffffffff168152602001908152602001600020549050919050565b60003373ffffffffffffffffffffffffffffffffffffffff168273ffffffffffffffffffffffffffffffffffffffff1614156111fd576040517f08c379a00000000000000000000000000000000000000000000000000000000081526004016111f490613e9b565b60405180910390fd5b600073ffffffffffffffffffffffffffffffffffffffff168273ffffffffffffffffffffffffffffffffffffffff16141561126d576040517f08c379a000000000000000000000000000000000000000000000000000000000815260040161126490613f9b565b60405180910390fd5b61127a8585853386612889565b9050949350505050565b60008082116112c8576040517f08c379a00000000000000000000000000000000000000000000000000000000081526004016112bf90613edb565b60405180910390fd5b60006112d330611bea565b905060006112e2848347611c9e565b90508092505050919050565b6060600480546112fd9061451c565b80601f01602080910402602001604051908101604052809291908181526020018280546113299061451c565b80156113765780601f1061134b57610100808354040283529160200191611376565b820191906000526020600020905b81548152906001019060200180831161135957829003601f168201915b5050505050905090565b600061138f8484843333612889565b90509392505050565b60003373ffffffffffffffffffffffffffffffffffffffff168373ffffffffffffffffffffffffffffffffffffffff161415611409576040517f08c379a000000000000000000000000000000000000000000000000000000000815260040161140090613e9b565b60405180910390fd5b61141887878787338888612a53565b90509695505050505050565b60008061142f611e90565b90506000600160008373ffffffffffffffffffffffffffffffffffffffff1673ffffffffffffffffffffffffffffffffffffffff16815260200190815260200160002060008673ffffffffffffffffffffffffffffffffffffffff1673ffffffffffffffffffffffffffffffffffffffff168152602001908152602001600020549050838110156114f5576040517f08c379a00000000000000000000000000000000000000000000000000000000081526004016114ec9061423b565b60405180910390fd5b6115028286868403611e98565b60019250505092915050565b600080611519611e90565b9050611526818585612344565b600191505092915050565b60003373ffffffffffffffffffffffffffffffffffffffff168273ffffffffffffffffffffffffffffffffffffffff1614156115a2576040517f08c379a000000000000000000000000000000000000000000000000000000000815260040161159990613e9b565b60405180910390fd5b600073ffffffffffffffffffffffffffffffffffffffff168273ffffffffffffffffffffffffffffffffffffffff161415611612576040517f08c379a000000000000000000000000000000000000000000000000000000000815260040161160990613f9b565b60405180910390fd5b61161f348585338661086f565b90509392505050565b600061163986868686333388612e17565b905095945050505050565b6000808211611688576040517f08c379a000000000000000000000000000000000000000000000000000000000815260040161167f906141bb565b60405180910390fd5b600061169330611bea565b90506116a0834783611c9e565b915050919050565b60003373ffffffffffffffffffffffffffffffffffffffff168273ffffffffffffffffffffffffffffffffffffffff161415611719576040517f08c379a000000000000000000000000000000000000000000000000000000000815260040161171090613e9b565b60405180910390fd5b600073ffffffffffffffffffffffffffffffffffffffff168273ffffffffffffffffffffffffffffffffffffffff161415611789576040517f08c379a000000000000000000000000000000000000000000000000000000000815260040161178090613f9b565b60405180910390fd5b6117968585853386611d45565b9050949350505050565b6000600160008473ffffffffffffffffffffffffffffffffffffffff1673ffffffffffffffffffffffffffffffffffffffff16815260200190815260200160002060008373ffffffffffffffffffffffffffffffffffffffff1673ffffffffffffffffffffffffffffffffffffffff16815260200190815260200160002054905092915050565b600061183886868686333388612a53565b905095945050505050565b60003373ffffffffffffffffffffffffffffffffffffffff168373ffffffffffffffffffffffffffffffffffffffff1614156118b4576040517f08c379a00000000000000000000000000000000000000000000000000000000081526004016118ab90613e9b565b60405180910390fd5b6118c387878787338888612e17565b90509695505050505050565b60006118de348484333361086f565b905092915050565b6000806000861161192c576040517f08c379a000000000000000000000000000000000000000000000000000000000815260040161192390613f1b565b60405180910390fd5b42831161196e576040517f08c379a0000000000000000000000000000000000000000000000000000000008152600401611965906141db565b60405180910390fd5b60008511801561197e5750600084115b61198757600080fd5b6000611991610c60565b9050600081116119d6576040517f08c379a00000000000000000000000000000000000000000000000000000000081526004016119cd9061427b565b60405180910390fd5b60006119e130611bea565b90506000479050600083828b6119f791906143f4565b611a0191906143c3565b905060008484670de0b6b3a76400008d611a1b91906143f4565b611a2591906143f4565b611a2f91906143c3565b905089821015611a74576040517f08c379a0000000000000000000000000000000000000000000000000000000008152600401611a6b90613e3b565b60405180910390fd5b611a7e338c613153565b3373ffffffffffffffffffffffffffffffffffffffff166108fc839081150290604051600060405180830381858888f19350505050158015611ac4573d6000803e3d6000fd5b50600560009054906101000a900473ffffffffffffffffffffffffffffffffffffffff1673ffffffffffffffffffffffffffffffffffffffff1663a9059cbb33836040518363ffffffff1660e01b8152600401611b22929190613d7e565b602060405180830381600087803b158015611b3c57600080fd5b505af1158015611b50573d6000803e3d6000fd5b505050506040513d601f19601f82011682018060405250810190611b74919061348d565b507f0fbf06c058b90cb038a618f8c2acbf6145f8b3570fd1fa56abb8f0f3f05b36e8338383604051611ba893929190613da7565b60405180910390a1818196509650505050505094509492505050565b600560009054906101000a900473ffffffffffffffffffffffffffffffffffffffff1681565b6000600560009054906101000a900473ffffffffffffffffffffffffffffffffffffffff1673ffffffffffffffffffffffffffffffffffffffff166370a08231836040518263ffffffff1660e01b8152600401611c479190613d2c565b60206040518083038186803b158015611c5f57600080fd5b505afa158015611c73573d6000803e3d6000fd5b505050506040513d601f19601f82011682018060405250810190611c9791906134df565b9050919050565b60008083118015611caf5750600082115b611cee576040517f08c379a0000000000000000000000000000000000000000000000000000000008152600401611ce59061403b565b60405180910390fd5b60006103e585611cfe91906143f4565b905060008382611d0e91906143f4565b90506000826103e887611d2191906143f4565b611d2b919061436d565b90508082611d3991906143c3565b93505050509392505050565b6000428411611d89576040517f08c379a0000000000000000000000000000000000000000000000000000000008152600401611d80906141db565b60405180910390fd5b60008611611dcc576040517f08c379a0000000000000000000000000000000000000000000000000000000008152600401611dc39061415b565b60405180910390fd5b6000611dd730611bea565b90506000611de68883476125c5565b905080871015611df557600080fd5b8373ffffffffffffffffffffffffffffffffffffffff166108fc899081150290604051600060405180830381858888f19350505050158015611e3b573d6000803e3d6000fd5b50611e478530836127d2565b7f7f4091b46c33e918a0f3aa42307641d17bb67029427a5369e54b35398423870585828a604051611e7a93929190613da7565b60405180910390a1809250505095945050505050565b600033905090565b600073ffffffffffffffffffffffffffffffffffffffff168373ffffffffffffffffffffffffffffffffffffffff161415611f08576040517f08c379a0000000000000000000000000000000000000000000000000000000008152600401611eff9061419b565b60405180910390fd5b600073ffffffffffffffffffffffffffffffffffffffff168273ffffffffffffffffffffffffffffffffffffffff161415611f78576040517f08c379a0000000000000000000000000000000000000000000000000000000008152600401611f6f90613ebb565b60405180910390fd5b80600160008573ffffffffffffffffffffffffffffffffffffffff1673ffffffffffffffffffffffffffffffffffffffff16815260200190815260200160002060008473ffffffffffffffffffffffffffffffffffffffff1673ffffffffffffffffffffffffffffffffffffffff168152602001908152602001600020819055508173ffffffffffffffffffffffffffffffffffffffff168373ffffffffffffffffffffffffffffffffffffffff167f8c5be1e5ebec7d5bd14f71427d1e84f3dd0314c0f7b2291e5b200ac8c7c3b9258360405161205691906142bb565b60405180910390a3505050565b60004284116120a7576040517f08c379a000000000000000000000000000000000000000000000000000000000815260040161209e906141db565b60405180910390fd5b600085116120ea576040517f08c379a00000000000000000000000000000000000000000000000000000000081526004016120e190613e5b565b60405180910390fd5b6000861161212d576040517f08c379a00000000000000000000000000000000000000000000000000000000081526004016121249061405b565b60405180910390fd5b600061213830611bea565b9050600061215288884761214c919061444e565b846125c5565b9050808711156121bf576000818861216a919061444e565b905060008111156121bd578573ffffffffffffffffffffffffffffffffffffffff166108fc829081150290604051600060405180830381858888f193505050501580156121bb573d6000803e3d6000fd5b505b505b600560009054906101000a900473ffffffffffffffffffffffffffffffffffffffff1673ffffffffffffffffffffffffffffffffffffffff1663a9059cbb858a6040518363ffffffff1660e01b815260040161221c929190613d7e565b602060405180830381600087803b15801561223657600080fd5b505af115801561224a573d6000803e3d6000fd5b505050506040513d601f19601f8201168201806040525081019061226e919061348d565b507fcd60aa75dea3072fbc07ae6d7d856b5dc5f4eee88854f5b4abf7b680ef8bc50f85828a6040516122a293929190613da7565b60405180910390a1809250505095945050505050565b60006122c484846117a0565b90507fffffffffffffffffffffffffffffffffffffffffffffffffffffffffffffffff811461233e5781811015612330576040517f08c379a000000000000000000000000000000000000000000000000000000000815260040161232790613efb565b60405180910390fd5b61233d8484848403611e98565b5b50505050565b600073ffffffffffffffffffffffffffffffffffffffff168373ffffffffffffffffffffffffffffffffffffffff1614156123b4576040517f08c379a00000000000000000000000000000000000000000000000000000000081526004016123ab9061411b565b60405180910390fd5b600073ffffffffffffffffffffffffffffffffffffffff168273ffffffffffffffffffffffffffffffffffffffff161415612424576040517f08c379a000000000000000000000000000000000000000000000000000000000815260040161241b90613e1b565b60405180910390fd5b61242f83838361332a565b60008060008573ffffffffffffffffffffffffffffffffffffffff1673ffffffffffffffffffffffffffffffffffffffff168152602001908152602001600020549050818110156124b5576040517f08c379a00000000000000000000000000000000000000000000000000000000081526004016124ac90613f3b565b60405180910390fd5b8181036000808673ffffffffffffffffffffffffffffffffffffffff1673ffffffffffffffffffffffffffffffffffffffff16815260200190815260200160002081905550816000808573ffffffffffffffffffffffffffffffffffffffff1673ffffffffffffffffffffffffffffffffffffffff1681526020019081526020016000206000828254612548919061436d565b925050819055508273ffffffffffffffffffffffffffffffffffffffff168473ffffffffffffffffffffffffffffffffffffffff167fddf252ad1be2c89b69c2b068fc378daa952ba7f163c4a11628f55a4df523b3ef846040516125ac91906142bb565b60405180910390a36125bf84848461332f565b50505050565b600080831180156125d65750600082115b612615576040517f08c379a000000000000000000000000000000000000000000000000000000000815260040161260c9061403b565b60405180910390fd5b60006103e8838561262691906143f4565b61263091906143f4565b905060006103e58685612643919061444e565b61264d91906143f4565b90506001818361265d91906143c3565b612667919061436d565b925050509392505050565b600073ffffffffffffffffffffffffffffffffffffffff168273ffffffffffffffffffffffffffffffffffffffff1614156126e2576040517f08c379a00000000000000000000000000000000000000000000000000000000081526004016126d99061429b565b60405180910390fd5b6126ee6000838361332a565b8060026000828254612700919061436d565b92505081905550806000808473ffffffffffffffffffffffffffffffffffffffff1673ffffffffffffffffffffffffffffffffffffffff1681526020019081526020016000206000828254612755919061436d565b925050819055508173ffffffffffffffffffffffffffffffffffffffff16600073ffffffffffffffffffffffffffffffffffffffff167fddf252ad1be2c89b69c2b068fc378daa952ba7f163c4a11628f55a4df523b3ef836040516127ba91906142bb565b60405180910390a36127ce6000838361332f565b5050565b600560009054906101000a900473ffffffffffffffffffffffffffffffffffffffff1673ffffffffffffffffffffffffffffffffffffffff166323b872dd8484846040518463ffffffff1660e01b815260040161283193929190613d47565b602060405180830381600087803b15801561284b57600080fd5b505af115801561285f573d6000803e3d6000fd5b505050506040513d601f19601f82011682018060405250810190612883919061348d565b50505050565b60004284116128cd576040517f08c379a00000000000000000000000000000000000000000000000000000000081526004016128c4906141db565b60405180910390fd5b60008511612910576040517f08c379a000000000000000000000000000000000000000000000000000000000815260040161290790613e5b565b60405180910390fd5b60008611612953576040517f08c379a000000000000000000000000000000000000000000000000000000000815260040161294a9061405b565b60405180910390fd5b600061295e30611bea565b9050600061296d888347611c9e565b90506000819050878110156129b7576040517f08c379a00000000000000000000000000000000000000000000000000000000081526004016129ae9061417b565b60405180910390fd5b8473ffffffffffffffffffffffffffffffffffffffff166108fc829081150290604051600060405180830381858888f193505050501580156129fd573d6000803e3d6000fd5b50612a0986308b6127d2565b7f7f4091b46c33e918a0f3aa42307641d17bb67029427a5369e54b353984238705868a83604051612a3c93929190613da7565b60405180910390a180935050505095945050505050565b6000428511612a97576040517f08c379a0000000000000000000000000000000000000000000000000000000008152600401612a8e906141db565b60405180910390fd5b60008811612ada576040517f08c379a0000000000000000000000000000000000000000000000000000000008152600401612ad190613fbb565b60405180910390fd5b60008611612b1d576040517f08c379a0000000000000000000000000000000000000000000000000000000008152600401612b14906141bb565b60405180910390fd5b3373ffffffffffffffffffffffffffffffffffffffff168273ffffffffffffffffffffffffffffffffffffffff161415612b8c576040517f08c379a0000000000000000000000000000000000000000000000000000000008152600401612b839061421b565b60405180910390fd5b600073ffffffffffffffffffffffffffffffffffffffff168273ffffffffffffffffffffffffffffffffffffffff161415612bfc576040517f08c379a0000000000000000000000000000000000000000000000000000000008152600401612bf39061413b565b60405180910390fd5b60008273ffffffffffffffffffffffffffffffffffffffff166359e948628a6040518263ffffffff1660e01b8152600401612c3791906142bb565b60206040518083038186803b158015612c4f57600080fd5b505afa158015612c63573d6000803e3d6000fd5b505050506040513d601f19601f82011682018060405250810190612c8791906134df565b90506000612c9430611bea565b90506000612ca38383476125c5565b9050808a1015612ce8576040517f08c379a0000000000000000000000000000000000000000000000000000000008152600401612cdf9061401b565b60405180910390fd5b82891015612d2b576040517f08c379a0000000000000000000000000000000000000000000000000000000008152600401612d2290613fdb565b60405180910390fd5b612d368730836127d2565b60008573ffffffffffffffffffffffffffffffffffffffff16630b573638858e8c8b6040518563ffffffff1660e01b8152600401612d76939291906142ff565b6020604051808303818588803b158015612d8f57600080fd5b505af1158015612da3573d6000803e3d6000fd5b50505050506040513d601f19601f82011682018060405250810190612dc891906134df565b90507f7f4091b46c33e918a0f3aa42307641d17bb67029427a5369e54b353984238705888386604051612dfd93929190613da7565b60405180910390a181945050505050979650505050505050565b6000428511612e5b576040517f08c379a0000000000000000000000000000000000000000000000000000000008152600401612e52906141db565b60405180910390fd5b60008811612e9e576040517f08c379a0000000000000000000000000000000000000000000000000000000008152600401612e9590613edb565b60405180910390fd5b60008711612ee1576040517f08c379a0000000000000000000000000000000000000000000000000000000008152600401612ed890613fbb565b60405180910390fd5b60008611612f24576040517f08c379a0000000000000000000000000000000000000000000000000000000008152600401612f1b9061415b565b60405180910390fd5b3373ffffffffffffffffffffffffffffffffffffffff168273ffffffffffffffffffffffffffffffffffffffff161415612f93576040517f08c379a0000000000000000000000000000000000000000000000000000000008152600401612f8a9061421b565b60405180910390fd5b600073ffffffffffffffffffffffffffffffffffffffff168273ffffffffffffffffffffffffffffffffffffffff161415613003576040517f08c379a0000000000000000000000000000000000000000000000000000000008152600401612ffa9061413b565b60405180910390fd5b600061300e30611bea565b9050600061301d8a8347611c9e565b9050600081905088811015613067576040517f08c379a000000000000000000000000000000000000000000000000000000000815260040161305e90613ffb565b60405180910390fd5b61307287308d6127d2565b60008573ffffffffffffffffffffffffffffffffffffffff1663ad65d76d838d8c8b6040518563ffffffff1660e01b81526004016130b2939291906142ff565b6020604051808303818588803b1580156130cb57600080fd5b505af11580156130df573d6000803e3d6000fd5b50505050506040513d601f19601f8201168201806040525081019061310491906134df565b90507f7f4091b46c33e918a0f3aa42307641d17bb67029427a5369e54b353984238705888d8460405161313993929190613da7565b60405180910390a180945050505050979650505050505050565b600073ffffffffffffffffffffffffffffffffffffffff168273ffffffffffffffffffffffffffffffffffffffff1614156131c3576040517f08c379a00000000000000000000000000000000000000000000000000000000081526004016131ba906140bb565b60405180910390fd5b6131cf8260008361332a565b60008060008473ffffffffffffffffffffffffffffffffffffffff1673ffffffffffffffffffffffffffffffffffffffff16815260200190815260200160002054905081811015613255576040517f08c379a000000000000000000000000000000000000000000000000000000000815260040161324c90613e7b565b60405180910390fd5b8181036000808573ffffffffffffffffffffffffffffffffffffffff1673ffffffffffffffffffffffffffffffffffffffff1681526020019081526020016000208190555081600260008282546132ac919061444e565b92505081905550600073ffffffffffffffffffffffffffffffffffffffff168373ffffffffffffffffffffffffffffffffffffffff167fddf252ad1be2c89b69c2b068fc378daa952ba7f163c4a11628f55a4df523b3ef8460405161331191906142bb565b60405180910390a36133258360008461332f565b505050565b505050565b505050565b60008135905061334381614eab565b92915050565b60008135905061335881614ec2565b92915050565b60008151905061336d81614ed9565b92915050565b60008135905061338281614ef0565b92915050565b60008151905061339781614ef0565b92915050565b6000602082840312156133af57600080fd5b60006133bd84828501613334565b91505092915050565b600080604083850312156133d957600080fd5b60006133e785828601613334565b92505060206133f885828601613334565b9150509250929050565b60008060006060848603121561341757600080fd5b600061342586828701613334565b935050602061343686828701613334565b925050604061344786828701613373565b9150509250925092565b6000806040838503121561346457600080fd5b600061347285828601613334565b925050602061348385828601613373565b9150509250929050565b60006020828403121561349f57600080fd5b60006134ad8482850161335e565b91505092915050565b6000602082840312156134c857600080fd5b60006134d684828501613373565b91505092915050565b6000602082840312156134f157600080fd5b60006134ff84828501613388565b91505092915050565b6000806040838503121561351b57600080fd5b600061352985828601613373565b925050602061353a85828601613373565b9150509250929050565b60008060006060848603121561355957600080fd5b600061356786828701613373565b935050602061357886828701613373565b925050604061358986828701613334565b9150509250925092565b6000806000606084860312156135a857600080fd5b60006135b686828701613373565b93505060206135c786828701613373565b92505060406135d886828701613373565b9150509250925092565b600080600080608085870312156135f857600080fd5b600061360687828801613373565b945050602061361787828801613373565b935050604061362887828801613373565b925050606061363987828801613334565b91505092959194509250565b6000806000806080858703121561365b57600080fd5b600061366987828801613373565b945050602061367a87828801613373565b935050604061368b87828801613373565b925050606061369c87828801613373565b91505092959194509250565b600080600080600060a086880312156136c057600080fd5b60006136ce88828901613373565b95505060206136df88828901613373565b94505060406136f088828901613373565b935050606061370188828901613373565b925050608061371288828901613349565b9150509295509295909350565b60008060008060008060c0878903121561373857600080fd5b600061374689828a01613373565b965050602061375789828a01613373565b955050604061376889828a01613373565b945050606061377989828a01613373565b935050608061378a89828a01613334565b92505060a061379b89828a01613349565b9150509295509295509295565b6137b181614482565b82525050565b6137c0816144a6565b82525050565b60006137d182614351565b6137db818561435c565b93506137eb8185602086016144e9565b6137f4816145db565b840191505092915050565b600061380c60238361435c565b9150613817826145ec565b604082019050919050565b600061382f601a8361435c565b915061383a8261463b565b602082019050919050565b6000613852601c8361435c565b915061385d82614664565b602082019050919050565b600061387560228361435c565b91506138808261468d565b604082019050919050565b600061389860188361435c565b91506138a3826146dc565b602082019050919050565b60006138bb60228361435c565b91506138c682614705565b604082019050919050565b60006138de60228361435c565b91506138e982614754565b604082019050919050565b6000613901601d8361435c565b915061390c826147a3565b602082019050919050565b6000613924601d8361435c565b915061392f826147cc565b602082019050919050565b600061394760268361435c565b9150613952826147f5565b604082019050919050565b600061396a60188361435c565b915061397582614844565b602082019050919050565b600061398d600c8361435c565b91506139988261486d565b602082019050919050565b60006139b060228361435c565b91506139bb82614896565b604082019050919050565b60006139d360248361435c565b91506139de826148e5565b604082019050919050565b60006139f6603b8361435c565b9150613a0182614934565b604082019050919050565b6000613a1960178361435c565b9150613a2482614983565b602082019050919050565b6000613a3c60248361435c565b9150613a47826149ac565b604082019050919050565b6000613a5f60168361435c565b9150613a6a826149fb565b602082019050919050565b6000613a8260278361435c565b9150613a8d82614a24565b604082019050919050565b6000613aa560188361435c565b9150613ab082614a73565b602082019050919050565b6000613ac860278361435c565b9150613ad382614a9c565b604082019050919050565b6000613aeb60218361435c565b9150613af682614aeb565b604082019050919050565b6000613b0e60218361435c565b9150613b1982614b3a565b604082019050919050565b6000613b31601f8361435c565b9150613b3c82614b89565b602082019050919050565b6000613b5460258361435c565b9150613b5f82614bb2565b604082019050919050565b6000613b7760218361435c565b9150613b8282614c01565b604082019050919050565b6000613b9a601c8361435c565b9150613ba582614c50565b602082019050919050565b6000613bbd60278361435c565b9150613bc882614c79565b604082019050919050565b6000613be060248361435c565b9150613beb82614cc8565b604082019050919050565b6000613c03601f8361435c565b9150613c0e82614d17565b602082019050919050565b6000613c2660188361435c565b9150613c3182614d40565b602082019050919050565b6000613c4960138361435c565b9150613c5482614d69565b602082019050919050565b6000613c6c601f8361435c565b9150613c7782614d92565b602082019050919050565b6000613c8f60258361435c565b9150613c9a82614dbb565b604082019050919050565b6000613cb260298361435c565b9150613cbd82614e0a565b604082019050919050565b6000613cd5601f8361435c565b9150613ce082614e59565b602082019050919050565b6000613cf8601f8361435c565b9150613d0382614e82565b602082019050919050565b613d17816144d2565b82525050565b613d26816144dc565b82525050565b6000602082019050613d4160008301846137a8565b92915050565b6000606082019050613d5c60008301866137a8565b613d6960208301856137a8565b613d766040830184613d0e565b949350505050565b6000604082019050613d9360008301856137a8565b613da06020830184613d0e565b9392505050565b6000606082019050613dbc60008301866137a8565b613dc96020830185613d0e565b613dd66040830184613d0e565b949350505050565b6000602082019050613df360008301846137b7565b92915050565b60006020820190508181036000830152613e1381846137c6565b905092915050565b60006020820190508181036000830152613e34816137ff565b9050919050565b60006020820190508181036000830152613e5481613822565b9050919050565b60006020820190508181036000830152613e7481613845565b9050919050565b60006020820190508181036000830152613e9481613868565b9050919050565b60006020820190508181036000830152613eb48161388b565b9050919050565b60006020820190508181036000830152613ed4816138ae565b9050919050565b60006020820190508181036000830152613ef4816138d1565b9050919050565b60006020820190508181036000830152613f14816138f4565b9050919050565b60006020820190508181036000830152613f3481613917565b9050919050565b60006020820190508181036000830152613f548161393a565b9050919050565b60006020820190508181036000830152613f748161395d565b9050919050565b60006020820190508181036000830152613f9481613980565b9050919050565b60006020820190508181036000830152613fb4816139a3565b9050919050565b60006020820190508181036000830152613fd4816139c6565b9050919050565b60006020820190508181036000830152613ff4816139e9565b9050919050565b6000602082019050818103600083015261401481613a0c565b9050919050565b6000602082019050818103600083015261403481613a2f565b9050919050565b6000602082019050818103600083015261405481613a52565b9050919050565b6000602082019050818103600083015261407481613a75565b9050919050565b6000602082019050818103600083015261409481613a98565b9050919050565b600060208201905081810360008301526140b481613abb565b9050919050565b600060208201905081810360008301526140d481613ade565b9050919050565b600060208201905081810360008301526140f481613b01565b9050919050565b6000602082019050818103600083015261411481613b24565b9050919050565b6000602082019050818103600083015261413481613b47565b9050919050565b6000602082019050818103600083015261415481613b6a565b9050919050565b6000602082019050818103600083015261417481613b8d565b9050919050565b6000602082019050818103600083015261419481613bb0565b9050919050565b600060208201905081810360008301526141b481613bd3565b9050919050565b600060208201905081810360008301526141d481613bf6565b9050919050565b600060208201905081810360008301526141f481613c19565b9050919050565b6000602082019050818103600083015261421481613c3c565b9050919050565b6000602082019050818103600083015261423481613c5f565b9050919050565b6000602082019050818103600083015261425481613c82565b9050919050565b6000602082019050818103600083015261427481613ca5565b9050919050565b6000602082019050818103600083015261429481613cc8565b9050919050565b600060208201905081810360008301526142b481613ceb565b9050919050565b60006020820190506142d06000830184613d0e565b92915050565b60006040820190506142eb6000830185613d0e565b6142f86020830184613d0e565b9392505050565b60006060820190506143146000830186613d0e565b6143216020830185613d0e565b61432e60408301846137a8565b949350505050565b600060208201905061434b6000830184613d1d565b92915050565b600081519050919050565b600082825260208201905092915050565b6000614378826144d2565b9150614383836144d2565b9250827fffffffffffffffffffffffffffffffffffffffffffffffffffffffffffffffff038211156143b8576143b761454e565b5b828201905092915050565b60006143ce826144d2565b91506143d9836144d2565b9250826143e9576143e861457d565b5b828204905092915050565b60006143ff826144d2565b915061440a836144d2565b9250817fffffffffffffffffffffffffffffffffffffffffffffffffffffffffffffffff04831182151516156144435761444261454e565b5b828202905092915050565b6000614459826144d2565b9150614464836144d2565b9250828210156144775761447661454e565b5b828203905092915050565b600061448d826144b2565b9050919050565b600061449f826144b2565b9050919050565b60008115159050919050565b600073ffffffffffffffffffffffffffffffffffffffff82169050919050565b6000819050919050565b600060ff82169050919050565b60005b838110156145075780820151818401526020810190506144ec565b83811115614516576000848401525b50505050565b6000600282049050600182168061453457607f821691505b60208210811415614548576145476145ac565b5b50919050565b7f4e487b7100000000000000000000000000000000000000000000000000000000600052601160045260246000fd5b7f4e487b7100000000000000000000000000000000000000000000000000000000600052601260045260246000fd5b7f4e487b7100000000000000000000000000000000000000000000000000000000600052602260045260246000fd5b6000601f19601f8301169050919050565b7f45524332303a207472616e7366657220746f20746865207a65726f206164647260008201527f6573730000000000000000000000000000000000000000000000000000000000602082015250565b7f4d696e696d756d2045544820616d6f756e74206e6f74206d6574000000000000600082015250565b7f496e76616c69642076616c756520666f722045544820616d6f756e7400000000600082015250565b7f45524332303a206275726e20616d6f756e7420657863656564732062616c616e60008201527f6365000000000000000000000000000000000000000000000000000000000000602082015250565b7f526563697069656e742063616e6e6f742062652073656c660000000000000000600082015250565b7f45524332303a20617070726f766520746f20746865207a65726f20616464726560008201527f7373000000000000000000000000000000000000000000000000000000000000602082015250565b7f546f6b656e7320736f6c64206d7573742062652067726561746572207468616e60008201527f2030000000000000000000000000000000000000000000000000000000000000602082015250565b7f45524332303a20696e73756666696369656e7420616c6c6f77616e6365000000600082015250565b7f416d6f756e74206d7573742062652067726561746572207468616e2030000000600082015250565b7f45524332303a207472616e7366657220616d6f756e742065786365656473206260008201527f616c616e63650000000000000000000000000000000000000000000000000000602082015250565b7f546f6b656e20616d6f756e742065786365656473206d61780000000000000000600082015250565b7f455448206e6f742073656e740000000000000000000000000000000000000000600082015250565b7f526563697069656e742063616e6e6f742068617665207a65726f20616464726560008201527f7373000000000000000000000000000000000000000000000000000000000000602082015250565b7f546f6b656e7320626f75676874206d757374206265206772656174657220746860008201527f616e203000000000000000000000000000000000000000000000000000000000602082015250565b7f45544820736f6c64206e6565647320746f20626520677265617465722074686160008201527f6e206f7220657175616c20746f20616d6f756e7420626f756768740000000000602082015250565b7f546865206d696e696d756d20455448206e6f74206d6574000000000000000000600082015250565b7f546f6b656e7320736f6c6420697320616c77617973206772656174657220746860008201527f616e203000000000000000000000000000000000000000000000000000000000602082015250565b7f4e6f7420656e6f75676820696e20726573657276657300000000000000000000600082015250565b7f416d6f756e74206f6620746f6b656e73206d757374206265206772656174657260008201527f207468616e203000000000000000000000000000000000000000000000000000602082015250565b7f4e756d626572206f6620746f6b656e7320696e76616c69640000000000000000600082015250565b7f546f6b656e7320626f75676874206c657373207468616e20616d6f756e74206560008201527f7870656374656400000000000000000000000000000000000000000000000000602082015250565b7f45524332303a206275726e2066726f6d20746865207a65726f2061646472657360008201527f7300000000000000000000000000000000000000000000000000000000000000602082015250565b7f45544820626f75676874206d7573742062652067726561746572207468616e2060008201527f3000000000000000000000000000000000000000000000000000000000000000602082015250565b7f496e76616c69642076616c756520666f72206d696e206c697175696469747900600082015250565b7f45524332303a207472616e736665722066726f6d20746865207a65726f20616460008201527f6472657373000000000000000000000000000000000000000000000000000000602082015250565b7f45786368616e67652063616e6e6f742068617665207a65726f2061646472657360008201527f7300000000000000000000000000000000000000000000000000000000000000602082015250565b7f496e76616c69642076616c756520666f722045544820626f7567687400000000600082015250565b7f45544820626f75676874206d7573742062652067726561746572207468616e2060008201527f6d696e696d756d00000000000000000000000000000000000000000000000000602082015250565b7f45524332303a20617070726f76652066726f6d20746865207a65726f2061646460008201527f7265737300000000000000000000000000000000000000000000000000000000602082015250565b7f45544820736f6c64206d7573742062652067726561746572207468616e203000600082015250565b7f5468652074696d656c696d697420686173207061737365640000000000000000600082015250565b7f45544820616d6f756e74206e6f74207061696400000000000000000000000000600082015250565b7f45786368616e676520416464726573732063616e6e6f742062652073656c6600600082015250565b7f45524332303a2064656372656173656420616c6c6f77616e63652062656c6f7760008201527f207a65726f000000000000000000000000000000000000000000000000000000602082015250565b7f546865206c6971756964697479206d696e746564206973206c6573732074686160008201527f6e20746865206d696e0000000000000000000000000000000000000000000000602082015250565b7f5468657265206973206e6f206c697175696469747920746f2072656d6f766500600082015250565b7f45524332303a206d696e7420746f20746865207a65726f206164647265737300600082015250565b614eb481614482565b8114614ebf57600080fd5b50565b614ecb81614494565b8114614ed657600080fd5b50565b614ee2816144a6565b8114614eed57600080fd5b50565b614ef9816144d2565b8114614f0457600080fd5b5056fea2646970667358221220c2390538884badb9a9da7fc58a9159bd706dc7c8d3a5ca5d8c7ba220a328055164736f6c63430008040033",
  "immutableReferences": {},
  "source": "// SPDX-License-Identifier: MIT\npragma solidity ^0.8.4;\n\nimport \"@openzeppelin/contracts/token/ERC20/IERC20.sol\";\nimport \"@openzeppelin/contracts/token/ERC20/ERC20.sol\";\n\n// @title Uniswap V1 Exchange\n// @author Hazel Madolid\ncontract Exchange is ERC20 {\n    // Address of ERC20 token sold on this exchange\n    address public token;\n\n    event AddLiquidity(\n        address provider,\n        uint256 ethAmount,\n        uint256 tokenAmount\n    );\n\n    event RemoveLiquidity(address from, uint256 ethAmount, uint256 tokenAmount);\n    event TokenPurchase(address buyer, uint256 ethSold, uint256 tokenBought);\n    event EthPurchase(address buyer, uint256 tokensSold, uint256 weiBought);\n\n    fallback() external payable {\n        ethToTokenInput(msg.value, 1, block.timestamp, msg.sender, msg.sender);\n    }\n\n    /**\n     *   @param tokenAddress Address of ERC20 token sold on exchange\n     **/\n    constructor(address tokenAddress) ERC20(\"Uniswap-V1\", \"UNI-V1\") {\n        require(tokenAddress != address(0), \"Token address is not valid.\");\n        token = tokenAddress;\n    }\n\n    /** @dev Get traded ERC20 balance of account */\n    function getReserve(address account) private view returns (uint256) {\n        return IERC20(token).balanceOf(account);\n    }\n\n    /** @dev Call traded ERC20 transferFrom, make sure Exchange is approved first */\n    function transferTokensFrom(\n        address from,\n        address to,\n        uint256 amount\n    ) private {\n        IERC20(token).transferFrom(from, to, amount);\n    }\n\n    /** @dev Add ETH and ERC20 tokens and receive liquidity tokens\n     *   @param minLiquidity Minimum liquidity tokens (UNI) minted\n     *   @param maxTokens Max amount of ERC20 tokens added\n     *   @param deadline Transaction deadline\n     *   @return uint The amount of UNI tokens minted\n     **/\n    function addLiquidity(\n        uint256 minLiquidity,\n        uint256 maxTokens,\n        uint256 deadline\n    ) public payable returns (uint256) {\n        require(deadline > block.timestamp, \"The timelimit has passed\");\n        require(maxTokens > 0, \"Number of tokens invalid\");\n        require(msg.value > 0, \"ETH not sent\");\n\n        uint256 totalLiquidity = totalSupply();\n\n        // Existing liquidity\n        if (totalLiquidity > 0) {\n            require(minLiquidity > 0, \"Invalid value for min liquidity\");\n\n            // Mint liquidity tokens in proportion to ETH and tokens added.\n            uint256 ethReserve = address(this).balance - msg.value; \n            uint256 tokenReserve = getReserve(address(this));\n            uint256 tokenAmount = msg.value * tokenReserve / ethReserve + 1;\n            uint256 liquidityMinted = msg.value * totalLiquidity / ethReserve;\n\n            require(maxTokens >= tokenAmount, \"Token amount exceeds max\");\n            require(\n                liquidityMinted >= minLiquidity,\n                \"The liquidity minted is less than the min\"\n            );\n            _mint(msg.sender, minLiquidity);\n\n            transferTokensFrom(msg.sender, address(this), tokenAmount);\n\n            emit AddLiquidity(msg.sender, msg.value, tokenAmount);\n\n            return liquidityMinted;\n        } else {\n            // New exchange\n            require(msg.value >= 1000000000, \"ETH amount not paid\");\n\n            uint256 tokenAmount = maxTokens;\n\n            // Initial liqudity based off of ETH reserve\n            uint256 initialLiquidity = address(this).balance;\n            _mint(msg.sender, initialLiquidity);\n\n            transferTokensFrom(msg.sender, address(this), tokenAmount);\n\n            emit AddLiquidity(msg.sender, msg.value, tokenAmount);\n\n            return initialLiquidity;\n        }\n    }\n\n    /** @dev Burn UNI when removing liquidity\n     *   @param amount The burn amount of UNI\n     *   @param minEth   Minimum ETH removed\n     *   @param minTokens Minimum ERC20 tokens removed\n     *   @param deadline Transaction deadline\n     *   @return uint The amount of ETH removed\n     *   @return uint The amount of ERC20 tokens removed\n     **/\n    function removeLiquidity(\n        uint256 amount,\n        uint256 minEth,\n        uint256 minTokens,\n        uint256 deadline\n    ) public returns (uint256, uint256) {\n        require(amount > 0, \"Amount must be greater than 0\");\n        require(deadline > block.timestamp, \"The timelimit has passed\");\n        require(minEth > 0 && minTokens > 0); \n\n        uint256 totalLiquidity = totalSupply();\n        require(totalLiquidity > 0, \"There is no liquidity to remove\");\n\n        uint256 tokenReserve = getReserve(address(this));\n        uint ethBalance = address(this).balance;\n        uint256 ethAmount = amount * ethBalance / totalLiquidity;\n        uint256 tokenAmount = (amount * 10**18) * tokenReserve / totalLiquidity;\n\n        require(ethAmount >= minEth, \"Minimum ETH amount not met\");\n\n        // Burn liquidity tokens\n        _burn(msg.sender, amount);\n\n        // Both ETH and tokens are returned\n        payable(msg.sender).transfer(ethAmount);\n        IERC20(token).transfer(msg.sender, tokenAmount);\n\n        emit RemoveLiquidity(msg.sender, ethAmount, tokenAmount);\n\n        return (ethAmount, tokenAmount);\n    }\n\n    /** @dev Price function for converting between ETH and tokens\n     *   @param inputAmount Amount of ETH or tokens sold\n     *   @param inputReserve Amount of input ETH or tokens in exchange reserves\n     *   @param outputReserve Amount of output ETH or tokens in exchange reserves\n     *   @return Amount of ETH or tokens bought\n     **/\n    function getInputPrice(\n        uint256 inputAmount,\n        uint256 inputReserve,\n        uint256 outputReserve\n    ) private pure returns (uint256) {\n        require(\n            inputReserve > 0 && outputReserve > 0,\n            \"Not enough in reserves\"\n        );\n\n        uint256 inputAmountWithFee = inputAmount * 997; // 0.30% Fee\n        uint256 numerator = inputAmountWithFee * outputReserve;\n        uint256 denominator = (inputReserve * 1000) + inputAmountWithFee;\n        return numerator / denominator;\n    }\n\n    /** @dev Price function for converting between ETH and tokens\n     *   @param outputAmount Amount of ETH or tokens bought\n     *   @param inputReserve Amount of input ETH or tokens in exchange reserves\n     *   @param outputReserve Amount of output ETH or tokens in exchange reserves\n     *   @return Amount of ETH or tokens bought\n     **/\n    function getOutputPrice(\n        uint256 outputAmount,\n        uint256 inputReserve,\n        uint256 outputReserve\n    ) private pure returns (uint256) {\n        require(\n            inputReserve > 0 && outputReserve > 0,\n            \"Not enough in reserves\"\n        );\n        uint256 numerator = inputReserve * outputReserve * 1000;\n        uint256 denominator = (outputReserve - outputAmount) * 997;\n        return numerator / denominator + 1;\n    }\n\n    function ethToTokenInput(\n        uint256 ethSold,\n        uint256 minTokens,\n        uint256 deadline,\n        address buyer,\n        address recipient\n    ) private returns (uint256) {\n        require(deadline > block.timestamp, \"The timelimit has passed\");\n        require(ethSold > 0, \"Invalid value for ETH amount\");\n        require(minTokens > 0, \"Amount of tokens must be greater than 0\");\n\n        uint256 tokenReserve = getReserve(address(this));\n        uint256 tokensBought = getInputPrice(\n            ethSold,\n            address(this).balance - ethSold,\n            tokenReserve\n        );\n\n        require(\n            tokensBought >= minTokens,\n            \"Tokens bought less than amount expected\"\n        );\n\n        IERC20(token).transfer(recipient, tokensBought);\n\n        emit TokenPurchase(buyer, ethSold, tokensBought);\n\n        return tokensBought;\n    }\n\n    /** @dev Convert ETH to tokens\n     **/\n    function ethToTokenSwapInput(uint256 minTokens, uint256 deadline)\n        public\n        payable\n        returns (uint256)\n    {\n        return\n            ethToTokenInput(\n                msg.value,\n                minTokens,\n                deadline,\n                msg.sender,\n                msg.sender\n            );\n    }\n\n    /** @dev Convert ETH to tokens and transfer to recipient */\n    function ethToTokenTransferInput(\n        uint256 minTokens,\n        uint256 deadline,\n        address recipient\n    ) public payable returns (uint256) {\n        require(recipient != msg.sender, \"Recipient cannot be self\");\n        require(recipient != address(0), \"Recipient cannot have zero address\");\n        return\n            ethToTokenInput(\n                msg.value,\n                minTokens,\n                deadline,\n                msg.sender,\n                recipient\n            );\n    }\n\n    function ethToTokenOutput(\n        uint256 tokensBought,\n        uint256 maxEth,\n        uint256 deadline,\n        address buyer,\n        address recipient\n    ) private returns (uint256) {\n        require(deadline > block.timestamp, \"The timelimit has passed\");\n        require(maxEth > 0, \"Invalid value for ETH amount\");\n        require(tokensBought > 0, \"Amount of tokens must be greater than 0\");\n\n        uint256 tokenReserve = getReserve(address(this));\n        uint256 ethSold = getOutputPrice(\n            tokensBought,\n            address(this).balance - maxEth,\n            tokenReserve\n        );\n\n        if (maxEth > ethSold) {\n            uint256 ethRefund = maxEth - ethSold;\n            if (ethRefund > 0) {\n                payable(buyer).transfer(ethRefund);\n            }\n        }\n\n        IERC20(token).transfer(recipient, tokensBought);\n\n        emit TokenPurchase(buyer, ethSold, tokensBought);\n\n        return ethSold;\n    }\n\n    /** @dev Convert ETH to tokens */\n    function ethToTokenSwapOutput(uint256 tokensBought, uint256 deadline)\n        public\n        payable\n        returns (uint256)\n    {\n        return\n            ethToTokenOutput(\n                tokensBought,\n                msg.value,\n                deadline,\n                msg.sender,\n                msg.sender\n            );\n    }\n\n    /** @dev Convert ETH to tokens and transfer to recipient */\n    function ethToTokenTransferOutput(\n        uint256 tokensBought,\n        uint256 deadline,\n        address recipient\n    ) public payable returns (uint256) {\n        require(recipient != msg.sender, \"Recipient cannot be self\");\n        require(recipient != address(0), \"Recipient cannot have zero address\");\n        return\n            ethToTokenOutput(\n                tokensBought,\n                msg.value,\n                deadline,\n                msg.sender,\n                recipient\n            );\n    }\n\n    function tokenToEthInput(\n        uint256 tokensSold,\n        uint256 minEth,\n        uint256 deadline,\n        address buyer,\n        address recipient\n    ) private returns (uint256) {\n        require(deadline > block.timestamp, \"The timelimit has passed\");\n        require(minEth > 0, \"Invalid value for ETH amount\");\n        require(tokensSold > 0, \"Amount of tokens must be greater than 0\");\n\n        uint256 tokenReserve = getReserve(address(this));\n        uint256 ethBought = getInputPrice(\n            tokensSold,\n            tokenReserve,\n            address(this).balance\n        );\n        uint256 weiBought = ethBought;\n        require(weiBought >= minEth, \"ETH bought must be greater than minimum\");\n        payable(recipient).transfer(weiBought);\n\n        transferTokensFrom(buyer, address(this), tokensSold);\n\n        emit EthPurchase(buyer, tokensSold, weiBought);\n\n        return weiBought;\n    }\n\n    /** @dev Convert tokens to ETH */\n    function tokenToEthSwapInput(\n        uint256 tokensSold,\n        uint256 minEth,\n        uint256 deadline\n    ) public returns (uint256) {\n        return\n            tokenToEthInput(\n                tokensSold,\n                minEth,\n                deadline,\n                msg.sender,\n                msg.sender\n            );\n    }\n\n    /** @dev Convert tokens to ETH and transfer ETH */\n    function tokenToEthTransferInput(\n        uint256 tokensSold,\n        uint256 minEth,\n        uint256 deadline,\n        address recipient\n    ) public returns (uint256) {\n        require(recipient != msg.sender, \"Recipient cannot be self\");\n        require(recipient != address(0), \"Recipient cannot have zero address\");\n\n        return\n            tokenToEthInput(\n                tokensSold,\n                minEth,\n                deadline,\n                msg.sender,\n                recipient\n            );\n    }\n\n    function tokenToEthOutput(\n        uint256 ethBought,\n        uint256 maxTokens,\n        uint256 deadline,\n        address buyer,\n        address recipient\n    ) private returns (uint256) {\n        require(deadline > block.timestamp, \"The timelimit has passed\");\n        require(ethBought > 0, \"Invalid value for ETH bought\");\n\n        uint256 tokenReserve = getReserve(address(this));\n\n        uint256 tokensSold = getOutputPrice(\n            ethBought,\n            tokenReserve,\n            address(this).balance\n        );\n\n        require(maxTokens >= tokensSold);\n\n        // Send ETH to recipient\n        payable(recipient).transfer(ethBought);\n\n        transferTokensFrom(buyer, address(this), tokensSold);\n\n        emit EthPurchase(buyer, tokensSold, ethBought);\n\n        return tokensSold;\n    }\n\n    /** @dev Convert tokens to ETH */\n    function tokenToEthSwapOutput(\n        uint256 ethBought,\n        uint256 maxTokens,\n        uint256 deadline\n    ) public returns (uint256) {\n        return\n            tokenToEthOutput(\n                ethBought,\n                maxTokens,\n                deadline,\n                msg.sender,\n                msg.sender\n            );\n    }\n\n    /** @dev Convert tokens to ETH and transfer ETH  */\n    function tokenToEthTransferOutput(\n        uint256 ethBought,\n        uint256 maxTokens,\n        uint256 deadline,\n        address recipient\n    ) public returns (uint256) {\n        require(recipient != msg.sender, \"Recipient cannot be self\");\n        require(recipient != address(0), \"Recipient cannot have zero address\");\n\n        return\n            tokenToEthOutput(\n                ethBought,\n                maxTokens,\n                deadline,\n                msg.sender,\n                recipient\n            );\n    }\n\n    function tokenToTokenInput(\n        uint256 tokensSold,\n        uint256 minTokensBought,\n        uint256 minEthBought,\n        uint256 deadline,\n        address buyer,\n        address recipient,\n        address payable exchange\n    ) private returns (uint256) {\n        require(deadline > block.timestamp, \"The timelimit has passed\");\n        require(tokensSold > 0, \"Tokens sold must be greater than 0\");\n        require(minTokensBought > 0, \"Tokens bought must be greater than 0\");\n        require(minEthBought > 0, \"Invalid value for ETH bought\");\n        require(exchange != msg.sender, \"Exchange Address cannot be self\");\n        require(exchange != address(0), \"Exchange cannot have zero address\");\n\n        uint256 tokenReserve = getReserve(address(this));\n        uint256 ethBought = getInputPrice(\n            tokensSold,\n            tokenReserve,\n            address(this).balance\n        );\n\n        uint256 weiBought = ethBought;\n        require(weiBought >= minEthBought, \"The minimum ETH not met\");\n\n        transferTokensFrom(buyer, address(this), tokensSold);\n\n        // Send message to deployed contract given exchange address\n        uint256 tokensBought = Exchange(exchange).ethToTokenTransferInput{\n            value: weiBought\n        }(minTokensBought, deadline, recipient);\n\n        emit EthPurchase(buyer, tokensSold, weiBought);\n\n        return tokensBought;\n    }\n\n    function tokenToTokenOutput(\n        uint256 tokensBought,\n        uint256 maxTokensSold,\n        uint256 maxEthSold,\n        uint256 deadline,\n        address buyer,\n        address recipient,\n        address payable exchange\n    ) private returns (uint256) {\n        require(deadline > block.timestamp, \"The timelimit has passed\");\n        require(tokensBought > 0, \"Tokens bought must be greater than 0\");\n        require(maxEthSold > 0, \"ETH sold must be greater than 0\");\n\n        require(exchange != msg.sender, \"Exchange Address cannot be self\");\n        require(exchange != address(0), \"Exchange cannot have zero address\");\n\n        uint256 ethBought = Exchange(exchange).getEthToTokenOutputPrice(\n            tokensBought\n        );\n\n        uint256 tokenReserve = getReserve(address(this));\n\n        // tokensSold > 0\n        uint256 tokensSold = getOutputPrice(\n            ethBought,\n            tokenReserve,\n            address(this).balance\n        );\n\n        require(\n            maxTokensSold >= tokensSold,\n            \"Tokens sold is always greater than 0\"\n        );\n        require(\n            maxEthSold >= ethBought,\n            \"ETH sold needs to be greater than or equal to amount bought\"\n        );\n\n        transferTokensFrom(buyer, address(this), tokensSold);\n\n        uint256 ethSold = Exchange(exchange).ethToTokenTransferOutput{\n            value: ethBought\n        }(tokensBought, deadline, recipient);\n\n        emit EthPurchase(buyer, tokensSold, ethBought);\n\n        return tokensSold;\n    }\n\n    /** @dev Swap token (self) to token (address) with other deployed contracts */\n    function tokenToExchangeSwapInput(\n        uint256 tokensSold,\n        uint256 minTokensBought,\n        uint256 minEthBought,\n        uint256 deadline,\n        address payable exchangeAddress\n    ) public returns (uint256) {\n        return\n            tokenToTokenInput(\n                tokensSold,\n                minTokensBought,\n                minEthBought,\n                deadline,\n                msg.sender,\n                msg.sender,\n                exchangeAddress\n            );\n    }\n\n    /** @dev Swap token (self) to token (address) with other deployed contracts\n     *   And transfer tokens (address) to recipient */\n    function tokenToExchangeTransferInput(\n        uint256 tokensSold,\n        uint256 minTokensBought,\n        uint256 minEthBought,\n        uint256 deadline,\n        address recipient,\n        address payable exchangeAddress\n    ) public returns (uint256) {\n        require(recipient != msg.sender, \"Recipient cannot be self\");\n        return\n            tokenToTokenInput(\n                tokensSold,\n                minTokensBought,\n                minEthBought,\n                deadline,\n                msg.sender,\n                recipient,\n                exchangeAddress\n            );\n    }\n\n    /** @dev Swap token (self) to token (address) with other deployed contracts */\n    function tokenToExchangeSwapOutput(\n        uint256 tokensBought,\n        uint256 maxTokensSold,\n        uint256 maxEthSold,\n        uint256 deadline,\n        address payable exchangeAddress\n    ) public returns (uint256) {\n        return\n            tokenToTokenOutput(\n                tokensBought,\n                maxTokensSold,\n                maxEthSold,\n                deadline,\n                msg.sender,\n                msg.sender,\n                exchangeAddress\n            );\n    }\n\n    /** @dev Swap token (self) to token (address) with other deployed contracts\n     *   And transfer tokens (address) to recipient */\n    function tokenToExchangeTransferOutput(\n        uint256 tokensBought,\n        uint256 maxTokensSold,\n        uint256 maxEthSold,\n        uint256 deadline,\n        address recipient,\n        address payable exchangeAddress\n    ) public returns (uint256) {\n        require(recipient != msg.sender, \"Recipient cannot be self\");\n        return\n            tokenToTokenOutput(\n                tokensBought,\n                maxTokensSold,\n                maxEthSold,\n                deadline,\n                msg.sender,\n                recipient,\n                exchangeAddress\n            );\n    }\n\n    /** @dev Price function for ETH to Token with exact input because Uniswap can act as a price oracle\n     *   @return amount of tokens that can be bought with input ETH */\n    function getEthToTokenInputPrice(uint256 ethSold)\n        public\n        view\n        returns (uint256)\n    {\n        require(ethSold > 0, \"ETH sold must be greater than 0\");\n\n        uint256 tokenReserve = getReserve(address(this));\n\n        return getInputPrice(ethSold, address(this).balance, tokenReserve);\n    }\n\n    /** @dev Price function for ETH to Token trades with exact output\n     *   @return amount of ETH needed to buy output Tokens */\n    function getEthToTokenOutputPrice(uint256 tokensBought)\n        public\n        view\n        returns (uint256)\n    {\n        require(tokensBought > 0, \"Tokens bought must be greater than 0\");\n\n        uint256 tokenReserve = getReserve(address(this));\n        uint256 ethSold = getOutputPrice(\n            tokensBought,\n            address(this).balance,\n            tokenReserve\n        );\n\n        return ethSold;\n    }\n\n    /** @dev Price function for token to ETH trades with exact input\n     *   @return amount of ETH that can be bought with input tokens */\n    function getTokenToEthInputPrice(uint256 tokensSold)\n        public\n        view\n        returns (uint256)\n    {\n        require(tokensSold > 0, \"Tokens sold must be greater than 0\");\n\n        uint256 tokenReserve = getReserve(address(this));\n\n        uint256 ethBought = getInputPrice(\n            tokensSold,\n            tokenReserve,\n            address(this).balance\n        );\n        return ethBought;\n    }\n\n    /** @dev Price function for token to ETH trades with exact output\n     *   @return amount of tokens needed to buy output ETH */\n    function getTokenToEthOutputPrice(uint256 ethBought)\n        public\n        view\n        returns (uint256)\n    {\n        require(ethBought > 0, \"ETH bought must be greater than 0\");\n\n        uint256 tokenReserve = getReserve(address(this));\n\n        return getOutputPrice(ethBought, tokenReserve, address(this).balance);\n    }\n}\n",
  "sourcePath": "/Users/hmadolid/Development/Interviews/uniswap/contracts/Exchange.sol",
  "compiler": {
    "name": "solc",
    "version": "0.8.4+commit.c7e474f2.Emscripten.clang"
  },
  "schemaVersion": "3.1.0",
  "updatedAt": "2022-04-30T15:53:18.036Z",
  "networkType": "ethereum",
  "devdoc": {
    "kind": "dev",
    "methods": {
      "addLiquidity(uint256,uint256,uint256)": {
        "details": "Add ETH and ERC20 tokens and receive liquidity tokens",
        "params": {
          "deadline": "Transaction deadline",
          "maxTokens": "Max amount of ERC20 tokens added",
          "minLiquidity": "Minimum liquidity tokens (UNI) minted"
        },
        "returns": {
          "_0": "uint The amount of UNI tokens minted*"
        }
      },
      "allowance(address,address)": {
        "details": "See {IERC20-allowance}."
      },
      "approve(address,uint256)": {
        "details": "See {IERC20-approve}. NOTE: If `amount` is the maximum `uint256`, the allowance is not updated on `transferFrom`. This is semantically equivalent to an infinite approval. Requirements: - `spender` cannot be the zero address."
      },
      "balanceOf(address)": {
        "details": "See {IERC20-balanceOf}."
      },
      "constructor": {
        "params": {
          "tokenAddress": "Address of ERC20 token sold on exchange*"
        }
      },
      "decimals()": {
        "details": "Returns the number of decimals used to get its user representation. For example, if `decimals` equals `2`, a balance of `505` tokens should be displayed to a user as `5.05` (`505 / 10 ** 2`). Tokens usually opt for a value of 18, imitating the relationship between Ether and Wei. This is the value {ERC20} uses, unless this function is overridden; NOTE: This information is only used for _display_ purposes: it in no way affects any of the arithmetic of the contract, including {IERC20-balanceOf} and {IERC20-transfer}."
      },
      "decreaseAllowance(address,uint256)": {
        "details": "Atomically decreases the allowance granted to `spender` by the caller. This is an alternative to {approve} that can be used as a mitigation for problems described in {IERC20-approve}. Emits an {Approval} event indicating the updated allowance. Requirements: - `spender` cannot be the zero address. - `spender` must have allowance for the caller of at least `subtractedValue`."
      },
      "ethToTokenSwapInput(uint256,uint256)": {
        "details": "Convert ETH to tokens*"
      },
      "ethToTokenSwapOutput(uint256,uint256)": {
        "details": "Convert ETH to tokens "
      },
      "ethToTokenTransferInput(uint256,uint256,address)": {
        "details": "Convert ETH to tokens and transfer to recipient "
      },
      "ethToTokenTransferOutput(uint256,uint256,address)": {
        "details": "Convert ETH to tokens and transfer to recipient "
      },
      "getEthToTokenInputPrice(uint256)": {
        "details": "Price function for ETH to Token with exact input because Uniswap can act as a price oracle",
        "returns": {
          "_0": "amount of tokens that can be bought with input ETH "
        }
      },
      "getEthToTokenOutputPrice(uint256)": {
        "details": "Price function for ETH to Token trades with exact output",
        "returns": {
          "_0": "amount of ETH needed to buy output Tokens "
        }
      },
      "getTokenToEthInputPrice(uint256)": {
        "details": "Price function for token to ETH trades with exact input",
        "returns": {
          "_0": "amount of ETH that can be bought with input tokens "
        }
      },
      "getTokenToEthOutputPrice(uint256)": {
        "details": "Price function for token to ETH trades with exact output",
        "returns": {
          "_0": "amount of tokens needed to buy output ETH "
        }
      },
      "increaseAllowance(address,uint256)": {
        "details": "Atomically increases the allowance granted to `spender` by the caller. This is an alternative to {approve} that can be used as a mitigation for problems described in {IERC20-approve}. Emits an {Approval} event indicating the updated allowance. Requirements: - `spender` cannot be the zero address."
      },
      "name()": {
        "details": "Returns the name of the token."
      },
      "removeLiquidity(uint256,uint256,uint256,uint256)": {
        "details": "Burn UNI when removing liquidity",
        "params": {
          "amount": "The burn amount of UNI",
          "deadline": "Transaction deadline",
          "minEth": "Minimum ETH removed",
          "minTokens": "Minimum ERC20 tokens removed"
        },
        "returns": {
          "_0": "uint The amount of ETH removed",
          "_1": "uint The amount of ERC20 tokens removed*"
        }
      },
      "symbol()": {
        "details": "Returns the symbol of the token, usually a shorter version of the name."
      },
      "tokenToEthSwapInput(uint256,uint256,uint256)": {
        "details": "Convert tokens to ETH "
      },
      "tokenToEthSwapOutput(uint256,uint256,uint256)": {
        "details": "Convert tokens to ETH "
      },
      "tokenToEthTransferInput(uint256,uint256,uint256,address)": {
        "details": "Convert tokens to ETH and transfer ETH "
      },
      "tokenToEthTransferOutput(uint256,uint256,uint256,address)": {
        "details": "Convert tokens to ETH and transfer ETH  "
      },
      "tokenToExchangeSwapInput(uint256,uint256,uint256,uint256,address)": {
        "details": "Swap token (self) to token (address) with other deployed contracts "
      },
      "tokenToExchangeSwapOutput(uint256,uint256,uint256,uint256,address)": {
        "details": "Swap token (self) to token (address) with other deployed contracts "
      },
      "tokenToExchangeTransferInput(uint256,uint256,uint256,uint256,address,address)": {
        "details": "Swap token (self) to token (address) with other deployed contracts   And transfer tokens (address) to recipient "
      },
      "tokenToExchangeTransferOutput(uint256,uint256,uint256,uint256,address,address)": {
        "details": "Swap token (self) to token (address) with other deployed contracts   And transfer tokens (address) to recipient "
      },
      "totalSupply()": {
        "details": "See {IERC20-totalSupply}."
      },
      "transfer(address,uint256)": {
        "details": "See {IERC20-transfer}. Requirements: - `to` cannot be the zero address. - the caller must have a balance of at least `amount`."
      },
      "transferFrom(address,address,uint256)": {
        "details": "See {IERC20-transferFrom}. Emits an {Approval} event indicating the updated allowance. This is not required by the EIP. See the note at the beginning of {ERC20}. NOTE: Does not update the allowance if the current allowance is the maximum `uint256`. Requirements: - `from` and `to` cannot be the zero address. - `from` must have a balance of at least `amount`. - the caller must have allowance for ``from``'s tokens of at least `amount`."
      }
    },
    "version": 1
  },
  "userdoc": {
    "kind": "user",
    "methods": {},
    "version": 1
  }
}